:1000000045C000004BC0000049C0000047C00000D0
:1000100045C0000043C0000041C000003FC00000D8
:100020003DC000003BC0000039C0000037C00000E8
:1000300035C0000033C0000031C000002FC00000F8
:100040002DC000002BC0000029C0000027C0000008
:1000500025C0000023C0000021C000001FC0000018
:100060001DC000001BC0000019C0000017C0000028
:1000700015C0000013C0000011C000000FC0000038
:100080000DC000000BC0000009C0000011241FBEFD
:10009000CFEFD0E4DEBFCDBF30D090C0B1CFCF9393
:1000A000DF9300D01F92CDB7DEB789836A834B837D
:1000B0008B81882371F08A81282F30E081E090E0E5
:1000C00002C0880F991F2A95E2F7982F8981892B02
:1000D0000EC08A81282F30E081E090E002C0880FB6
:1000E000991F2A95E2F7982F9095898189230F907F
:1000F0000F900F90DF91CF910895CF93DF93CDB7FD
:10010000DEB727970FB6F894DEBF0FBECDBF81E2F2
:1001100090E0FC01108282E290E02FEFFC0120834E
:1001200084E290E02FEFFC01208385E290E0FC0167
:10013000108219821A821C821D821E821B8285E215
:1001400090E0FC01108280E290E0FC0180818983D4
:1001500080E290E0FC018081853028F441E066E097
:100160008B819DDF8B8385E08A831FC08981181670
:10017000CCF48A818F8341E06F818B8190DF8B8308
:1001800089818250898380E290E0FC0180818930FE
:1001900049F48A81813031F440E061E08B817FDF76
:1001A0008B8306C08A8181508A838A818823F4F6F2
:1001B00085E290E02B81FC012083BBCFF894FFCF38
:00000001FF
