:1000000055C0000072C0000070C000006EC000004B
:100010006CC000006AC0000068C0000066C000003C
:1000200064C0000062C0000060C000005EC000004C
:100030005CC00000E6C1000058C0000056C00000CF
:1000400054C0000052C0000050C000004EC000006C
:100050004CC000004AC0000048C0000046C000007C
:1000600044C0000042C0000040C000003EC000008C
:100070003CC000003AC0000038C0000036C000009C
:1000800034C0000032C0000030C00000BE03C20314
:10009000E203E603020406040A041E04D404D404A2
:1000A000A004D404BA04C704D404D40411241FBE89
:1000B000CFEFD0E4DEBFCDBF11E0A0E0B1E0E8ECCF
:1000C000FBE100E00BBF02C007900D92A03EB1071C
:1000D000D9F722E0A0EEB1E001C01D92A830B2072E
:1000E000E1F70E94C30B0C94E20D8ACFCF93DF930C
:1000F000CDB7DEB781E01AD00000DF91CF9108952F
:10010000CF93DF93CDB7DEB784E690E0DAD088E313
:100110000DD086E00BD08FE009D081E007D08AE0D7
:1001200090E0CFD00000DF91CF910895CF93DF937F
:100130001F92CDB7DEB7898382E290E022E230E001
:10014000F90120812E7FFC0120838BE290E0298140
:10015000FC01208382E290E022E230E0F90120817C
:100160002260FC012083000082E290E022E230E085
:10017000F90120812D7FFC01208382E090E0A1D055
:1001800000000F90DF91CF910895CF93DF931F92DE
:10019000CDB7DEB7898382E290E022E230E0F90158
:1001A00020812160FC0120838BE290E02981FC0109
:1001B000208382E290E022E230E0F9012081226097
:1001C000FC012083000082E290E022E230E0F901AD
:1001D00020812D7FFC01208381E090E072D000001F
:1001E0000F90DF91CF910895CF93DF9300D000D08F
:1001F000CDB7DEB78A837C836B8378DF8A8189837E
:100200000FC0898191E0980F998318D08B819C81D0
:100210009C012F5F3F4F3C832B83FC018081B5DF26
:100220008B819C81FC018081882359F700000F900D
:100230000F900F900F90DF91CF910895CF93DF93A0
:100240001F92CDB7DEB789838981813120F48981FE
:1002500081586CDF03C08981815568DF00000F90F1
:10026000DF91CF910895CF93DF9300D000D0CDB729
:10027000DEB78A837C836B838A818830D0F48A815D
:10028000882F90E00896880F880F880F4FDF19821B
:100290000DC08981882F90E02B813C81820F931FB4
:1002A000FC01808172DF89818F5F89838981883039
:1002B00080F300000F900F900F900F90DF91CF917F
:1002C0000895CF93DF9300D000D000D0CDB7DEB734
:1002D0009E838D831A82198213C01C821B8206C0E2
:1002E00000008B819C8101969C838B838B819C81F8
:1002F00087309340ACF389819A8101969A838983F0
:1003000029813A818D819E812817390734F30000B5
:1003100026960FB6F894DEBF0FBECDBFDF91CF910A
:100320000895CF93DF9300D000D0CDB7DEB76983B7
:100330007A838B839C8389819A81AB81BC818093F2
:10034000040190930501A0930601B09307018091E9
:10035000040190910501A0910601B09107018093DD
:10036000E1019093E201A093E301B093E401000066
:100370000F900F900F900F90DF91CF910895CF9332
:10038000DF93CDB7DEB781E890E02BE0FC0120835E
:1003900088E890E02DE730E0FC01318320838FE690
:1003A00090E022E0FC01208384E890E0FC011182CF
:1003B00010828091040190910501A0910601B091F5
:1003C00007018093E1019093E201A093E301B093D0
:1003D000E4018FE590E02FE530E0F901208120680D
:1003E000FC0120830000DF91CF910895CF93DF932C
:1003F000CDB7DEB781E08093E0010000DF91CF91BF
:1004000008951F920F9200905F000F9211240090A8
:100410005B000F922F933F934F935F936F937F9364
:100420008F939F93AF93BF93EF93FF93CF93DF93FC
:10043000CDB7DEB78091E1019091E201A091E30197
:10044000B091E4010197A109B1098093E101909372
:10045000E201A093E301B093E4018091E101909166
:10046000E201A091E301B091E401892B8A2B8B2B4F
:1004700089F4BCDF8091040190910501A0910601EF
:10048000B09107018093E1019093E201A093E30111
:10049000B093E4010000DF91CF91FF91EF91BF9104
:1004A000AF919F918F917F916F915F914F913F910C
:1004B0002F910F9000925B000F9000925F000F90C1
:1004C0001F901895CF93DF9300D01F92CDB7DEB762
:1004D0009A8389836B8300008FE390E0FC01808125
:1004E000882F90E082709927892BB1F781E490E002
:1004F00029813A81FC013183208380E490E02B81C3
:10050000FC0120838FE390E02FE330E0F9012081AC
:100510002460FC0120838FE390E02FE330E0F901B9
:1005200020812260FC01208300000F900F900F902B
:10053000DF91CF910895CF93DF9300D0CDB7DEB791
:100540009A83898300008FE390E0FC018081882FEB
:1005500090E082709927892BB1F781E490E029819E
:100560003A81FC01318320838FE390E02FE330E078
:10057000F90120812160FC01208380E490E0FC01EE
:1005800080810F900F90DF91CF910895CF93DF93EB
:10059000CDB7DEB72C970FB6F894DEBF0FBECDBF38
:1005A0009A8789877C876B871C821B828B859C85B9
:1005B0009E838D830FC08B819C8101969C838B834E
:1005C0008D819E812AE030E0B9010E94000DCB01AF
:1005D0009E838D838D819E81892B69F71A82198272
:1005E0002AC08B859C852AE030E0B9010E94000D6D
:1005F00098878F838B859C852AE030E0B9010E9423
:10060000000DCB019C878B8789819A8101962B8174
:100610003C81A901481B590BCA019C0189859A8517
:10062000820F931F2F81205DFC01208389819A8195
:1006300001969A83898329813A818B819C8128172D
:1006400039077CF28B819C8129853A85820F931F23
:10065000FC01108200002C960FB6F894DEBF0FBE8E
:10066000CDBFDF91CF910895CF93DF93CDB7DEB7A4
:100670008091FD01882F90E08130910581F08230DA
:1006800091051CF4892B39F039C082309105B9F0FD
:10069000039781F133C081E08093FD0133C08091E5
:1006A000E501882321F081E08093FD012AC080913B
:1006B000E501882331F582E08093FD0122C083E2C9
:1006C00090E0FC018081882F90E08170992721E0E3
:1006D000892B09F020E0822F8093EC018091EC01BE
:1006E000813021F483E08093FD010CC082E080938F
:1006F000FD0108C081E08093FD0104C01092FD015E
:1007000001C000008091FD01882F90E081309105AB
:1007100099F08230910594F08230910519F0039799
:1007200031F00DC068E071E081E05EDD08C081E07D
:100730008093E501DBDC03C0000001C00000000085
:10074000DF91CF910895CF93DF93CDB7DEB780913E
:100750000302882F90E0092E000CAA0BBB0B40E08F
:1007600050E027E030E0841B950B2817390708F488
:10077000CEC08A5B9F4FFC010C94130D81E08093E7
:100780000302C7C08091E501882361F08091F501E3
:10079000882341F48091EF01882321F482E0809343
:1007A0000302B7C08091E701882341F01092EF0166
:1007B0001092E70182E080930302ABC081E0809356
:1007C0000302A7C083E080930302A3C083E290E00A
:1007D000FC018081809587708093EC018091EC0111
:1007E000823021F484E08093030293C08091EC0175
:1007F000843021F485E0809303028BC083E08093F2
:10080000030287C086E08093030283C086E0809362
:1008100003027FC083E290E0FC01808180958770B5
:100820008093EC018091EC01882321F487E0809390
:1008300003026FC086E0809303026BC083E290E006
:10084000FC018081809587708093EC018091EC01A0
:10085000823021F484E0809303025BC08091EC013C
:10086000843021F485E08093030253C08091EC0131
:10087000813079F480915C01843159F481E0809376
:10088000F40181E08093F50181E0809303022EDC86
:100890003DC08091EC01813079F480915C01873119
:1008A00059F482E08093F40181E08093F50181E0C6
:1008B000809303021BDC2AC08091EC01813079F423
:1008C00080915C018A3159F483E08093F40181E0E6
:1008D0008093F50181E08093030208DC17C08091CA
:1008E000EC01813079F480915C018D3159F484E020
:1008F0008093F40181E08093F50181E0809303020D
:10090000F5DB04C087E08093030203C002C01092AD
:10091000030280910302882F90E0092E000CAA0B9D
:10092000BB0B40E050E027E030E0841B950B28171C
:10093000390708F43AC0825B9F4FFC010C94130DF9
:10094000D5DB8EE0F3DB69E271E081E04DDC84E130
:1009500075DC81E01ADC87E171DC82E016DC8AE17B
:100960006DDC83E012DC8DE169DC84E00EDC81E18A
:1009700065DC1BC080915C01813228F480915C01B0
:100980008F5F80935C0180915C0158DC0EC0809188
:100990005C01823128F080915C01815080935C0180
:1009A00080915C014BDC01C000000000DF91CF9121
:1009B0000895CF93DF93CDB7DEB78091FC01882FE8
:1009C00090E08130910581F0823091051CF4892BF3
:1009D00039F026C082309105D9F00397E9F020C0A4
:1009E00081E08093FC011EC08091E501882361F0C5
:1009F0008091F501882341F08091EF01882321F453
:100A000082E08093FC010EC081E08093FC010AC06B
:100A100083E08093FC0106C083E08093FC0102C068
:100A20001092FC018091FC01882F90E081309105AB
:100A300089F08230910584F0029781F46BE371E0D4
:100A400081E0D2DB81E1FADB8091F4019EDB8CE076
:100A50006DDB05C0000003C0000001C00000000005
:100A6000DF91CF910895CF93DF93CDB7DEB780911B
:100A70000502882F90E08230910509F444C083304C
:100A800091052CF4009771F0019781F085C08430B6
:100A9000910509F440C084309105CCF1059709F423
:100AA0004EC07AC081E08093050278C083E290E076
:100AB000FC018081809587708093EC018091F50125
:100AC000882361F08091EF01882341F48091EC014B
:100AD000823021F482E08093050214C08091F501F8
:100AE000882361F08091EF01882341F48091EC012B
:100AF000843021F483E08093050204C081E0809378
:100B000005024CC04BC084E08093050247C084E0DE
:100B10008093050243C083E290E0FC0180818095D0
:100B200087708093EC018091EC01882321F485E0AB
:100B30008093050233C084E0809305022FC083E2D6
:100B400090E0FC018081809587708093EC0180911A
:100B5000F501882361F08091EF01882341F48091B1
:100B6000EC01823021F482E08093050214C0809170
:100B7000F501882361F08091EF01882341F4809191
:100B8000EC01843021F483E08093050204C085E009
:100B90008093050203C002C01092050280910502F5
:100BA000882F90E08230910559F0833091050CF444
:100BB0003BC08430910509F439C00497DCF037C09C
:100BC00080915D01813041F081E138DB8FE5DDDA34
:100BD00081E080935D0107C080915D01813019F44F
:100BE00081E080935D0180915D0128DB8091F401BB
:100BF000CCDA1DC080915D01813141F081E18093AB
:100C00005D0181E01BDB8FE5C0DA07C080915D01EB
:100C1000813119F481E180935D0180915D010EDBEA
:100C20008091F401B2DA03C0000001C000000000AE
:100C3000DF91CF910895CF93DF93CDB7DEB7809149
:100C40000002882F90E08130910549F082309105B3
:100C5000B1F0892B21F581E08093000222C08091C0
:100C6000EF01882341F48091F501882321F082E08F
:100C70008093000216C081E08093000212C0809130
:100C8000EF01882341F48091F501882321F082E06F
:100C90008093000206C081E08093000202C010929F
:100CA000000280910002882F90E08130910589F048
:100CB000029789F41CD725E030E0B901A1D68093D2
:100CC000ED0115D723E030E0B9019AD68093EE010B
:100CD00003C0000001C000000000DF91CF91089523
:100CE000CF93DF93CDB7DEB780910102882F90E0DC
:100CF000009719F0019729F06EC081E080930102FE
:100D00006CC08091F501882309F461C08091EF01E6
:100D1000882309F05CC08091ED01813039F4809125
:100D2000EE01813019F480E18093F0018091ED01B2
:100D3000823039F48091EE01813019F480E18093A2
:100D4000F1018091ED01833039F48091EE01813021
:100D500019F480E18093F2018091ED01843039F43F
:100D60008091EE01813019F480E18093F30180914C
:100D7000ED01813039F48091EE01823019F480E286
:100D80008093F0018091ED01823039F48091EE0181
:100D9000823019F480E28093F1018091ED0183307B
:100DA00039F48091EE01823019F480E28093F201EF
:100DB0008091ED01843039F48091EE01823019F494
:100DC00080E28093F30181E08093010206C081E01C
:100DD0008093010202C01092010200000000DF9126
:100DE000CF910895CF93DF93CDB7DEB78091020204
:100DF000882F90E08130910549F082309105C1F053
:100E0000892B31F581E08093020224C08091ED01AD
:100E1000813051F48091EF01882331F41092E80180
:100E200082E08093020216C081E08093020212C029
:100E30008091E801882341F08091EF01882321F01F
:100E400081E08093020206C082E08093020202C029
:100E50001092020280910202882F90E08130910569
:100E600009F46FC0029709F06EC08091F0018231E1
:100E700080F18091F00181508093F0018091F00128
:100E8000DDD98AE282D98091F0018F5FD7D98FE5D1
:100E90007CD99091F00180915D01981759F481E01F
:100EA0008093EF011092F50181E08093E8011092A8
:100EB000F0014BC08091F001813109F046C081E121
:100EC000BDD98FE562D91092F00181E08093E801ED
:100ED0003CC08091F001823008F437C08091F0016D
:100EE000813198F58091F00181508093F0018091DB
:100EF000F001A4D98AE249D98091F0018F5F9ED98F
:100F00008FE543D99091F00180915D01981759F4D4
:100F100081E08093EF011092F50181E08093E80178
:100F20001092F00112C08091F001813071F481E0E3
:100F300085D98FE52AD91092F00181E08093E801EC
:100F400004C0000003C0000001C000000000DF91E9
:100F5000CF910895CF93DF93CDB7DEB78091FE0197
:100F6000882F90E08130910549F082309105C1F0E1
:100F7000892B31F581E08093FE0124C08091ED0141
:100F8000823051F48091EF01882331F41092E9010D
:100F900082E08093FE0116C081E08093FE0112C0C2
:100FA0008091E901882341F08091EF01882321F0AD
:100FB00081E08093FE0106C082E08093FE0102C0C2
:100FC0001092FE018091FE01882F90E08130910502
:100FD00009F46AC0029709F069C08091F101823179
:100FE00070F18091F10181508093F1018091F101C4
:100FF00025D98AE2CAD88091F1018F5F1FD98FE588
:10100000C4D89091F10180915D01981749F481E075
:101010008093EF011092F50181E08093E90148C0CF
:101020008091F101813109F043C081E107D98FE559
:10103000ACD81092F10181E08093E90139C0809130
:10104000F1018230A8F18091F101813188F5809120
:10105000F10181508093F1018091F101EFD88AE292
:1010600094D88091F1018F5FE9D88FE58ED8909167
:10107000F10180915D01981749F481E08093EF01BF
:101080001092F50181E08093E90112C08091F10195
:10109000813071F481E0D2D88FE577D81092F101D8
:1010A00081E08093E90104C0000003C0000001C09A
:1010B00000000000DF91CF910895CF93DF93CDB76B
:1010C000DEB780910402882F90E08130910549F0CD
:1010D00082309105C1F0892B31F581E080930402C3
:1010E00024C08091ED01833051F48091EF01882379
:1010F00031F41092EA0182E08093040216C081E08C
:101100008093040212C08091EA01882341F080910B
:10111000EF01882321F081E08093040206C082E081
:101120008093040202C01092040280910402882F6E
:1011300090E08130910509F46EC0029709F06DC00E
:101140008091F201823178F18091F2018150809397
:10115000F2018091F20172D88AE217D88091F201EF
:101160008F5F6CD88FE511D89091F20180915D016D
:10117000981749F481E08093EF011092F50181E026
:101180008093EA014CC08091F201813109F047C09F
:1011900081E154D88FE50E94C5001092F20181E0F0
:1011A0008093EA013CC08091F2018230C0F18091CD
:1011B000F2018131A0F58091F20181508093F2011A
:1011C0008091F2013BD88AE20E94C5008091F20131
:1011D0008F5F34D88FE50E94C5009091F201809115
:1011E0005D01981749F481E08093EF011092F501B9
:1011F00081E08093EA0113C08091F201813079F49B
:1012000081E01CD88FE50E94C5001092F20181E0B8
:101210008093EA0104C0000003C0000001C0000088
:101220000000DF91CF910895CF93DF93CDB7DEB764
:1012300080910602882F90E08130910549F082303C
:101240009105C1F0892B31F581E08093060224C01D
:101250008091ED01843051F48091EF01882331F4C5
:101260001092EB0182E08093060216C081E0809329
:10127000060212C08091EB01882341F08091EF01BA
:10128000882321F081E08093060206C082E08093EB
:10129000060202C01092060280910602882F90E09A
:1012A0008130910509F476C0029709F075C08091EC
:1012B000F3018231A0F18091F30181508093F30119
:1012C0008091F3010E941E018AE20E94C500809174
:1012D000F3018F5F0E941E018FE50E94C50090916F
:1012E000F30180915D01981749F481E08093EF014B
:1012F0001092F50181E08093EB0150C08091F301E1
:10130000813109F04BC081E10E941E018FE50E94EE
:10131000C5001092F30181E08093EB013FC0809102
:10132000F3018230D8F18091F3018131B8F58091D9
:10133000F30181508093F3018091F3010E941E011B
:101340008AE20E94C5008091F3018F5F0E941E0116
:101350008FE50E94C5009091F30180915D0198177F
:1013600049F481E08093EF011092F50181E08093D0
:10137000EB0114C08091F301813081F481E00E947F
:101380001E018FE50E94C5001092F30181E0809359
:10139000EB0104C0000003C0000001C00000000019
:1013A000DF91CF910895CF93DF93CDB7DEB78091D2
:1013B0000702882F90E08130910581F082309105FD
:1013C0001CF4892B39F02AC082309105B9F00397BB
:1013D00009F124C081E08093070223C08091EF01CE
:1013E000882341F48091F501882321F082E08093E5
:1013F000070217C083E08093070213C08091EF01BA
:10140000882321F083E0809307020BC082E0809361
:10141000070207C081E08093070203C082E0809347
:10142000070280910702882F90E081309105D1F06A
:1014300082309105CCF00297C9F48091F801909127
:10144000F9018436910521F481E08093FA010FC0FF
:101450008091F8019091F90101969093F9018093A0
:10146000F80105C0000003C0000001C0000000003A
:10147000DF91CF910895CF93DF93CDB7DEB72B9750
:101480000FB6F894DEBF0FBECDBF19821A821B8241
:101490008091FB01882F90E08230910511F183301B
:1014A00091052CF4009749F0019759F036C083302C
:1014B0009105D9F0049769F130C081E08093FB0178
:1014C0002EC08091EF01882341F08091E6018823AE
:1014D00021F482E08093FB0122C081E08093FB0134
:1014E0001EC084E08093FB011AC08091E601843124
:1014F00039F481E08093F60181E08093FB010FC015
:101500008091E6018F5F8093E60183E08093FB0189
:1015100006C083E08093FB0102C01092FB01809122
:10152000FB01882F90E08230910561F083309105B6
:101530000CF47CC08330910509F47AC0049709F457
:1015400056C077C08EE189838091F8019091F901AE
:10155000181619064CF48091F8019091F9010A9738
:101560001CF481E08A8319C08091F8019091F901FF
:101570000A9754F08091F8019091F9018436910511
:101580001CF482E08A8309C08091F8019091F901EE
:101590008436910514F083E08A836EE771E081E080
:1015A0000E94F4002091F8013091F901CE010996D2
:1015B000B9010E94C6021C8215C089810E941E01C9
:1015C0008C81882F90E09E01275F3F4F820F931FF1
:1015D000FC0180810E94C50089818F5F89838C8195
:1015E0008F5F8C839C818A81981738F322C01D827B
:1015F00006C08B818F5F8B838D818F5F8D838D8103
:10160000882F90E00E949B028F3F99F78B81882F53
:1016100090E09F838E838091F8019091F9018887F3
:101620008E819F8168850E94620203C0000001C014
:10163000000000002B960FB6F894DEBF0FBECDBFA2
:10164000DF91CF910895CF93DF9300D000D01F9208
:10165000CDB7DEB71A8219828091FF01882F90E002
:101660008230910529F1833091052CF4009761F0C7
:10167000019771F054C08430910579F1843091055F
:10168000DCF0059771F14BC081E08093FF0149C008
:101690008091EF01882341F08091F601882321F0A9
:1016A00082E08093FF013DC081E08093FF0139C05B
:1016B00083E08093FF0135C08091F701843121F4EC
:1016C00084E08093FF012DC08091F7018F5F8093AC
:1016D000F70183E08093FF0124C085E08093FF0140
:1016E00020C083E290E0FC018081882F90E081702F
:1016F000992721E0892B09F020E0822F8093EC01CB
:101700008091EC01882339F081E08093E70181E04A
:101710008093FF0106C085E08093FF0102C0109214
:10172000FF018091FF01882F90E08230910531F018
:1017300083309105F4F00497B1F01CC083E090E091
:101740000E949B02882F90E09A8389836DE971E063
:1017500081E00E94F40029813A81CE010396B9010B
:101760000E94C60207C06EEB71E081E00E94F400A7
:1017700001C0000000000F900F900F900F900F908D
:10178000DF91CF910895CF93DF93CDB7DEB76C97FC
:101790000FB6F894DEBF0FBECDBF8AE290E02FEF08
:1017A000FC0120838BE290E0FC01108281E290E05A
:1017B0002FEFFC01208382E290E0FC01108287E29F
:1017C00090E02FEFFC01208388E290E0FC01108282
:1017D00084E290E0FC01108285E290E02FEFFC01B2
:1017E00020831A8219821C821B821E821D82188607
:1017F0001F821A8619861C861B861E861D86188ADD
:101800001F861A8A198A1C8A1B8A1E8A1D8A188EAC
:101810001F8A1A8E198E1C8E1B8E6EE571E081E078
:101820000E94330166E671E082E00E9433016EE6B9
:1018300071E083E00E94330166E771E084E00E947A
:10184000330180E80E94960069E170E080E090E05A
:101850000E9491010E94BF010E9480000E947600B8
:101860001092FD01109203021092FC0110920502E9
:101870001092000210920102109202021092FE01D8
:1018800010920402109206021092FB0110920702BD
:101890001092FF0189819A81883E934020F00E9436
:1018A00034031A8219828B819C818436910520F041
:1018B0000E94A3031C821B828D819E818436910528
:1018C00018F077D81E821D828F819885C29718F0F4
:1018D000CAD818861F8289859A858039914018F068
:1018E000AAD91A8619868B859C858436910518F0AD
:1018F000F7D91C861B868D859E858436910518F048
:1019000071DA1E861D868F8598898436910518F0B8
:1019100021DB188A1F8689899A898436910518F0F7
:10192000CCDB1A8A198A8B899C898436910518F038
:101930007BDC1C8A1B8A8D899E898436910518F070
:101940009ADD1E8A1D8A898D9A8D883E934018F0F3
:101950002ADD1A8E198E8B8D9C8DC29718F073DE3E
:101960001C8E1B8E00008091E0018823E1F3109211
:10197000E00189819A8149969A8389838B819C8130
:1019800049969C838B838D819E8149969E838D830E
:101990008F819885499698878F8389859A854996FE
:1019A0009A8789878B859C8549969C878B878D85AF
:1019B0009E8549969E878D878F8598894996988BB5
:1019C0008F8789899A8949969A8B898B8B899C897B
:1019D00049969C8B8B8B8D899E8949969E8B8D8B8E
:1019E0008F89988D4996988F8F8B898D9A8D49967E
:1019F0009A8F898F8B8D9C8D49969C8F8B8F4ACF28
:101A000097FB072E16F4009406D077FD08D014D06B
:101A100007FC05D03EF4909581959F4F08957095F1
:101A200061957F4F0895EE0FFF1F0024001C0BBE31
:101A30000790F691E02D0994AA1BBB1B51E107C04A
:101A4000AA1FBB1FA617B70710F0A61BB70B881F4E
:101A5000991F5A95A9F780959095BC01CD010895DD
:101A60008F929F92AF92BF92CF92DF92EF92FF92AE
:101A7000CF93DF93EC01688179818A819B81611525
:101A800071058105910521F464E279ED8BE597E01C
:101A90002DE133EF41E050E038D049015A019B017C
:101AA000AC01A7EAB1E44DD06B017C01ACEEB4EF20
:101AB000A501940152D0DC01CB018C0D9D1DAE1D02
:101AC000BF1DB7FF03C00197A109B0488883998360
:101AD000AA83BB839F77DF91CF91FF90EF90DF9038
:101AE000CF90BF90AF909F908F900895B9CF80E036
:101AF00091E0B6CFA0E0B0E08093000190930101A7
:101B0000A0930201B09303010895052E97FB16F4EC
:101B100000940FD057FD05D024D007FC02D046F426
:101B200008C050954095309521953F4F4F4F5F4FDE
:101B3000089590958095709561957F4F8F4F9F4F39
:101B4000089531D0A59F900DB49F900DA49F800D56
:101B5000911D11240895B7FFF4CFF3DF821B930B7F
:101B60000895A1E21A2EAA1BBB1BFD010DC0AA1FDE
:101B7000BB1FEE1FFF1FA217B307E407F50720F0F6
:101B8000A21BB30BE40BF50B661F771F881F991F71
:101B90001A9469F760957095809590959B01AC01BA
:101BA000BD01CF010895A29FB001B39FC001A39FC3
:101BB000700D811D1124911DB29F700D811D112486
:081BC000911D0895F894FFCF78
:101BC80001000000010000002D2A2D475241564512
:101BD800204D494E442D2A2D2A2D5052455353202D
:101BE8002053544152542D2A002043484F4F534507
:101BF80020204156415441522020005F5F5F5F5FC3
:101C08005F5F5F5F5F5F5F5F5F5F5F5F5F5F5F5FDC
:101C18005F5F5F5F5F5F5F5F5F5F5F001717000475
:101C280003130E0E0A000E0E040E150A0A00040E07
:101C3800151F1F1F1500040A1F1F1F0A0A00202056
:101C48002047414D4520204F5645522020202059FD
:101C58004F55522053434F5245203D20002020200D
:101C680047414D4520204F564552202020204849C5
:101C780047482053434F5245203D313030002050D3
:101C88005245535320535441525420544F2020203E
:101C98002020524553544152542020202020000037
:04000005008001E591
:00000001FF
