:1000000045C0000060C000005EC000005CC0000091
:100010005AC0000058C0000056C0000054C0000084
:1000200052C0000050C000004EC000004CC0000094
:100030004AC000008BC0000046C0000044C0000061
:1000400042C0000040C000003EC000003CC00000B4
:100050003AC0000038C0000036C0000034C00000C4
:1000600032C0000030C000002EC000002CC00000D4
:100070002AC0000028C0000026C0000024C00000E4
:1000800022C0000020C000001EC0000011241FBEBE
:10009000CFEFD0E4DEBFCDBF11E0A0E0B1E0E0EAF9
:1000A000F4E000E00BBF02C007900D92A430B1074E
:1000B000D9F721E0A4E0B1E001C01D92A031B20760
:1000C000E1F7BFD1EBC19CCFCF93DF93CDB7DEB7C4
:1000D00081E890E02BE0FC01208388E890E02DE7A8
:1000E00030E0FC01318320838FE690E022E0FC01C8
:1000F000208384E890E0FC0111821082809100014D
:1001000090910101A0910201B09103018093090136
:1001100090930A01A0930B01B0930C018FE590E03E
:100120002FE530E0F90120812068FC0120830000E8
:10013000DF91CF910895CF93DF93CDB7DEB781E004
:10014000809308010000DF91CF9108951F920F92D4
:1001500000905F000F92112400905B000F922F938C
:100160003F934F935F936F937F938F939F93AF933F
:10017000BF93EF93FF93CF93DF93CDB7DEB780911B
:10018000090190910A01A0910B01B0910C01019716
:10019000A109B1098093090190930A01A0930B0171
:1001A000B0930C018091090190910A01A0910B017B
:1001B000B0910C01892B8A2B8B2B89F4BCDF8091A9
:1001C000000190910101A0910201B091030180937F
:1001D000090190930A01A0930B01B0930C01000058
:1001E000DF91CF91FF91EF91BF91AF919F918F914F
:1001F0007F916F915F914F913F912F910F9000925E
:100200005B000F9000925F000F901F901895CF93A6
:10021000DF9300D000D0CDB7DEB769837A838B83BC
:100220009C8389819A81AB81BC81809300019093EA
:100230000101A0930201B09303018091000190910C
:100240000101A0910201B0910301809309019093F3
:100250000A01A0930B01B0930C0100000F900F90C6
:100260000F900F90DF91CF910895CF93DF93CDB78B
:10027000DEB780910F01882F90E08130910561F009
:1002800082309105F9F0892B99F581E08093040182
:1002900081E080930F012EC080910701833048F4E4
:1002A00080910401880F8093040182E080930F0104
:1002B00021C081E08093040182E080930F011092BD
:1002C000070118C080910701833048F48091040130
:1002D000880F8093040181E080930F010BC081E0BF
:1002E0008093040181E080930F011092070102C006
:1002F00010920F0180910F01882F90E081309105BD
:1003000019F0029739F00CC0809107018F5F80933C
:10031000070106C0809107018F5F809307010000ED
:100320000000DF91CF910895CF93DF93CDB7DEB773
:1003300080910E01882F90E08130910559F0823034
:10034000910561F0892B89F41092050181E0809379
:100350000E010DC082E080930E0109C088E08093F9
:10036000050181E080930E0102C010920E01809180
:100370000E01882F90E08130910561F08230910567
:1003800031F0892B09F007C01092050104C01092CA
:10039000050101C000000000DF91CF910895CF93C7
:1003A000DF93CDB7DEB780910D01882F90E08130CB
:1003B000910559F08230910599F0892BE1F4109262
:1003C000060181E080930D0118C090910501809194
:1003D0000401890F8093060182E080930D010DC016
:1003E0009091050180910401890F8093060181E0BD
:1003F00080930D0102C010920D0180910D01882F94
:1004000090E08130910559F08230910579F0892B87
:1004100009F013C085E290E0FC0110820EC085E275
:1004200090E020910601FC01208307C085E290E066
:1004300020910601FC01208300000000DF91CF9194
:100440000895CF93DF931F92CDB7DEB784E290E09B
:100450002FEFFC01208385E290E0FC0110821982DD
:1004600062E370E080E090E0D2DE2EDE10920F01B9
:1004700010920E0110920D01F8DE8981863910F07C
:1004800053DF19828CDF0000809108018823E1F39B
:100490001092080189818E5C8983EECFF894FFCF9A
:0404A0000100000057
:00000001FF
