:1000000045C0000060C000005EC000005CC0000091
:100010005AC0000058C0000056C0000054C0000084
:1000200052C0000050C000004EC000004CC0000094
:100030004AC0000091C1000046C0000044C000005A
:1000400042C0000040C000003EC000003CC00000B4
:100050003AC0000038C0000036C0000034C00000C4
:1000600032C0000030C000002EC000002CC00000D4
:100070002AC0000028C0000026C0000024C00000E4
:1000800022C0000020C000001EC0000011241FBEBE
:10009000CFEFD0E4DEBFCDBF11E0A0E0B1E0E8E7F4
:1000A000F9E000E00BBF02C007900D92AC33B1073E
:1000B000D9F721E0ACE3B1E001C01D92A935B20748
:1000C000E1F759D357C49CCFCF93DF9300D0CDB77E
:1000D000DEB789836A838A81282F30E081E090E04F
:1000E00002C0880F991F2A95E2F7982F89818923EA
:1000F0000F900F90DF91CF910895CF93DF93CDB7FD
:10010000DEB781E01AD00000DF91CF910895CF9340
:10011000DF93CDB7DEB784E690E0ACD088E30DD0B6
:1001200086E00BD08FE009D081E007D08AE090E034
:10013000A1D00000DF91CF910895CF93DF931F925C
:10014000CDB7DEB7898382E290E022E230E0F901A8
:1001500020812E7FFC0120838BE290E02981FC012D
:10016000208382E290E022E230E0F90120812260E7
:10017000FC012083000082E290E022E230E0F901FD
:1001800020812D7FFC01208382E090E073D000006D
:100190000F90DF91CF910895CF93DF931F92CDB74A
:1001A000DEB7898382E290E022E230E0F90120812B
:1001B0002160FC0120838BE290E02981FC012083F7
:1001C00082E290E022E230E0F90120812260FC012D
:1001D0002083000082E290E022E230E0F9012081F9
:1001E0002D7FFC01208381E090E044D000000F903F
:1001F000DF91CF910895CF93DF9300D000D0CDB79A
:10020000DEB78A837C836B8378DF8A8189830FC022
:10021000898191E0980F998318D08B819C819C01F2
:100220002F5F3F4F3C832B83FC018081B5DF8B81A7
:100230009C81FC018081882359F700000F900F906A
:100240000F900F90DF91CF910895CF93DF931F927E
:10025000CDB7DEB789838981813120F489818158C6
:100260006CDF03C08981815568DF00000F90DF914A
:10027000CF910895CF93DF9300D000D000D0CDB7B9
:10028000DEB79E838D831A82198213C01C821B8263
:1002900006C000008B819C8101969C838B838B819F
:1002A0009C8187309340ACF389819A8101969A832F
:1002B000898329813A818D819E812817390734F3FA
:1002C000000026960FB6F894DEBF0FBECDBFDF91BB
:1002D000CF910895CF93DF93CDB7DEB781E890E05B
:1002E0002BE0FC01208388E890E02DE730E0FC0162
:1002F000318320838FE690E022E0FC01208384E8B4
:1003000090E0FC01118210828091380190913901B6
:10031000A0913A01B0913B0180933D0190933E0141
:10032000A0933F01B09340018FE590E02FE530E0CE
:10033000F90120812068FC0120830000DF91CF912A
:100340000895CF93DF93CDB7DEB781E080933C0172
:100350000000DF91CF9108951F920F9200905F00EF
:100360000F92112400905B000F922F933F934F93B5
:100370005F936F937F938F939F93AF93BF93EF930D
:10038000FF93CF93DF93CDB7DEB780913D0190917E
:100390003E01A0913F01B09140010197A109B1092F
:1003A00080933D0190933E01A0933F01B0934001A3
:1003B00080913D0190913E01A0913F01B09140019B
:1003C000892B8A2B8B2B89F4BCDF8091380190918B
:1003D0003901A0913A01B0913B0180933D01909386
:1003E0003E01A0933F01B09340010000DF91CF9107
:1003F000FF91EF91BF91AF919F918F917F916F91FD
:100400005F914F913F912F910F9000925B000F9061
:1004100000925F000F901F901895CF93DF9300D04C
:1004200000D0CDB7DEB769837A838B839C838981C3
:100430009A81AB81BC818093380190933901A0935C
:100440003A01B0933B018091380190913901A0911C
:100450003A01B0913B0180933D0190933E01A093FE
:100460003F01B093400100000F900F900F900F904C
:10047000DF91CF910895CF93DF93CDB7DEB72C975F
:100480000FB6F894DEBF0FBECDBF6D837E838F8322
:10049000988729873A874B875C878D819E81AF81BA
:1004A000B88529853A854B855C85BC01CD0140D254
:1004B000DC01CB0189839A83AB83BC8389819A81D8
:1004C000AB81BC81892B8A2B8B2B29F489859A855A
:1004D000AB85BC8511C089859A85AB85BC858D832C
:1004E0009E83AF83B88789819A81AB81BC818987DC
:1004F0009A87AB87BC87D1CFBC01CD012C960FB6B4
:10050000F894DEBF0FBECDBFDF91CF910895CF939A
:10051000DF93CDB7DEB788E290E02FEEFC012083B9
:10052000000086E290E0FC01808160E0CDDD882360
:1005300021F481E380935701C8C086E290E0FC017A
:10054000808161E0C1DD882321F484E38093570139
:10055000BCC086E290E0FC01808162E0B5DD8823CA
:1005600021F487E380935701B0C086E290E0FC015C
:10057000808163E0A9DD882321F48AE2809357011A
:10058000A4C088E290E02FEDFC012083000086E209
:1005900090E0FC01808160E097DD882321F482E314
:1005A0008093570192C086E290E0FC01808161E077
:1005B0008BDD882321F485E38093570186C086E292
:1005C00090E0FC01808162E07FDD882321F488E3F4
:1005D000809357017AC086E290E0FC01808163E05D
:1005E00073DD882321F480E3809357016EC088E295
:1005F00090E02FEBFC012083000086E290E0FC01FC
:10060000808160E061DD882321F483E380935701DA
:100610005CC086E290E0FC01808161E055DD8823CA
:1006200021F486E38093570150C086E290E0FC01FC
:10063000808162E049DD882321F489E380935701BA
:1006400044C086E290E0FC01808163E03DDD8823C8
:1006500021F483E28093570138C088E290E02FE7CD
:10066000FC012083000086E290E0FC01808160E0D4
:100670002BDD882321F481E48093570126C086E294
:1006800090E0FC01808161E01FDD882321F482E499
:10069000809357011AC086E290E0FC01808162E0FD
:1006A00013DD882321F483E4809357010EC086E292
:1006B00090E0FC01808163E007DD882321F484E47D
:1006C0008093570102C01092570180E0DF91CF91D3
:1006D0000895CF93DF9300D01F92CDB7DEB78091FE
:1006E00057018B838B81882321F4809158018823C3
:1006F000D9F11A82198212C089819A810196895D85
:100700009E4FFC01208189819A81895D9E4FFC0169
:10071000208389819A8101969A83898389819A812C
:100720000F9754F380915801873258F48091580103
:10073000882F90E080509F4FFC018081809336018C
:1007400003C080E280933601D8DC67E271E081E08B
:1007500052DD809158018F5F80935801809158013C
:10076000863311F41092580180E00F900F900F9093
:10077000DF91CF910895CF93DF93CDB7DEB76B971D
:100780000FB6F894DEBF0FBECDBF81E290E02FEF31
:10079000FC01208382E290E0FC01108284E290E080
:1007A0002FEFFC01208385E290E0FC01108287E2BC
:1007B00090E020EFFC01208388E290E02FE0FC0134
:1007C00020838AE290E02FEFFC0120838BE290E00F
:1007D000FC01108284E690E0A0E0B0E08A839B8375
:1007E000AC83BD8388EE93E0A0E0B0E08E839F836E
:1007F000A887B98719822E813F81488559858A81CA
:100800009B81AC81BD81BC01CD0135DEDC01CB011A
:100810008A879B87AC87BD878A819B81AC81BD819C
:100820002A853B854C855D85BC01CD0181D0DA01EF
:10083000C9018E879F87A88BB98B8E819F81A885E0
:10084000B9852A853B854C855D85BC01CD0170D07D
:10085000DA01C9018A8B9B8BAC8BBD8B81E491E063
:10086000998F888F8CE491E09B8F8A8F82E090E053
:100870009F8B8E8B8FEF809341018E859F85A889FA
:10088000B9898093420190934301A0934401B093AE
:1008900045018E859F85A889B989809346019093EB
:1008A0004701A0934801B093490187E892E09093F3
:1008B0004B0180934A018FEF80934C018A899B8979
:1008C000AC89BD8980934D0190934E01A0934F0157
:1008D000B09350018A899B89AC89BD89809351016D
:1008E00090935201A0935301B093540189E693E091
:1008F0009093560180935501EDDC8A859B85AC85EC
:10090000BD85BC01CD0189DD02DCF7DB00DE89811C
:10091000833019F4DEDE198203C089818F5F8983F9
:10092000000080913C018823E1F310923C01EECF5E
:10093000A1E21A2EAA1BBB1BFD010DC0AA1FBB1FE3
:10094000EE1FFF1FA217B307E407F50720F0A21B55
:10095000B30BE40BF50B661F771F881F991F1A94C2
:1009600069F760957095809590959B01AC01BD01EC
:08097000CF010895F894FFCFB8
:1009780020435331323042206973204C6567656EDD
:10098800642E2E2E207761697420666F7220697438
:1009980020444152592100202020202020202020BE
:0C09A80020202020202020000100000062
:00000001FF
