S01A00006D616E64723032345F637573746F6D6C61622E7372656339
S113000045C0000060C000005EC000005CC000008D
S11300105AC0000058C0000056C0000054C0000080
S113002052C0000050C000004EC000004CC0000090
S11300304AC00000F8C0000046C0000044C00000F0
S113004042C0000040C000003EC000003CC00000B0
S11300503AC0000038C0000036C0000034C00000C0
S113006032C0000030C000002EC000002CC00000D0
S11300702AC0000028C0000026C0000024C00000E0
S113008022C0000020C000001EC0000011241FBEBA
S1130090CFEFD0E4DEBFCDBF11E0A0E0B1E0EEEAE7
S11300A0F5E000E00BBF02C007900D92AC30B10741
S11300B0D9F721E0ACE0B1E001C01D92AD33B20745
S11300C0E1F7EAD172C29CCFCF93DF93CDB7DEB70D
S11300D084E690E06DD088E30DD086E00BD08FE00D
S11300E009D081E007D08AE090E062D00000DF917F
S11300F0CF910895CF93DF931F92CDB7DEB7898355
S113010082E290E022E230E0F90120812E7FFC01BE
S113011020838BE290E02981FC01208382E290E03D
S113012022E230E0F90120812260FC0120830000FA
S113013082E290E022E230E0F90120812D7FFC018F
S1130140208382E090E034D000000F90DF91CF91C3
S11301500895CF93DF931F92CDB7DEB7898382E2F0
S113016090E022E230E0F90120812160FC0120834B
S11301708BE290E02981FC01208382E290E022E27C
S113018030E0F90120812260FC012083000082E23A
S113019090E022E230E0F90120812D7FFC012083F0
S11301A081E090E005D000000F90DF91CF91089599
S11301B0CF93DF9300D000D000D0CDB7DEB79E83BD
S11301C08D831A82198213C01C821B8206C0000010
S11301D08B819C8101969C838B838B819C8187304E
S11301E09340ACF389819A8101969A83898329810A
S11301F03A818D819E812817390734F300002696B1
S11302000FB6F894DEBF0FBECDBFDF91CF91089536
S1130210CF93DF93CDB7DEB781E080930C0100006C
S1130220DF91CF9108951F920F9200905F000F927B
S1130230112400905B000F922F933F934F935F9391
S11302406F937F938F939F93AF93BF93EF93FF939A
S1130250CF93DF93CDB7DEB780910D0190910E015E
S1130260A0910F01B09110010197A109B1098093E8
S11302700D0190930E01A0930F01B0931001809192
S11302800D0190910E01A0910F01B0911001892BE5
S11302908A2B8B2B89F4BCDF8091000190910101A2
S11302A0A0910201B091030180930D0190930E017E
S11302B0A0930F01B09310010000DF91CF91FF9143
S11302C0EF91BF91AF919F918F917F916F915F91CA
S11302D04F913F912F910F9000925B000F900092ED
S11302E05F000F901F901895CF93DF9300D01F925B
S11302F0CDB7DEB79A8389836B838FE390E02FE3D6
S113030030E0F90120812F70FC01208300008FE38D
S113031090E0FC018081882F90E082709927892BDE
S1130320B1F781E490E029813A81FC013183208393
S113033080E490E02B81FC0120838FE390E02FE3A5
S113034030E0F90120812460FC0120838FE390E0F8
S11303502FE330E0F90120812260FC0120830000BA
S11303600F900F900F90DF91CF910895CF93DF936B
S113037000D0CDB7DEB79A83898300008FE390E085
S1130380FC018081882F90E082709927892BB1F736
S113039081E490E029813A81FC01318320838FE359
S11303A090E02FE330E0F90120812160FC012083FB
S11303B080E490E0FC0180810F900F90DF91CF9159
S11303C00895CF93DF93CDB7DEB72C970FB6F8948B
S11303D0DEBF0FBECDBF9A8789877C876B871C825F
S11303E01B828B859C859E838D830EC08B819C8113
S11303F001969C838B838D819E812AE030E0B90134
S1130400ADD0CB019E838D838D819E81892B71F725
S11304101A82198228C08B859C852AE030E0B901B4
S11304209DD098878F838B859C852AE030E0B90125
S113043095D0CB019C878B8789819A8101962B81EA
S11304403C81A901481B590BCA019C0189859A85E5
S1130450820F931F2F81205DFC01208389819A8163
S113046001969A83898329813A818B819C812817FB
S113047039078CF28B819C8129853A85820F931FE1
S1130480FC01108200002C960FB6F894DEBF0FBE5C
S1130490CDBFDF91CF910895CF93DF93CDB7DEB772
S11304A064970FB6F894DEBF0FBECDBF8AE290E02A
S11304B02FEFFC0120838BE290E0FC01108281E2AB
S11304C090E02FEFFC01208382E290E0FC01108297
S11304D0198281E090E0A0E0B0E08A839B83AC8342
S11304E0BD8388E0E4E0F1E0DE011D9601900D9209
S11304F08A95E1F784E090E09F838E83E5DD67E4ED
S113050080E090E0F1DE80E090E030DF22DE81E008
S113051090E02CDF1EDE82E090E028DF1ADE83E02C
S113052090E024DF882F90E0998788872885398593
S1130530CE010A96B90145DF8A850BDE8B8509DE7B
S11305408C8507DE8FEF90E011DF03DE00008091E1
S11305500C018823E1F310920C01F8CF97FB072ECE
S113056016F4009406D077FD08D00BD007FC05D014
S11305703EF4909581959F4F0895709561957F4FB6
S11305800895AA1BBB1B51E107C0AA1FBB1FA617D6
S1130590B70710F0A61BB70B881F991F5A95A9F728
S11105A080959095BC01CD010895F894FFCF8D
S10F05AE01000000320127011C011101B2
S9030000FC
