S01B00006D616E64723032345F6C6162395F70617274312E7372656353
S113000045C0000053C0000051C000004FC00000B4
S11300104DC000004BC0000049C0000047C00000B4
S113002045C0000043C0000041C000003FC00000C4
S11300303DC000003BC0000039C0000037C00000D4
S113004035C0000033C0000031C000002FC00000E4
S11300502DC000002BC0000029C0000027C00000F4
S113006025C0000023C0000021C000001FC0000004
S11300701DC000001BC0000019C0000017C0000014
S113008015C0000013C0000011C0000011241FBEE1
S1130090CFEFD0E4DEBFCDBF21E0A0E0B1E001C0EE
S11300A01D92A430B207E1F7B1D080C2A9CF0F935B
S11300B01F93CF93DF9300D000D0CDB7DEB7698311
S11300C07A838B839C838091000190910101A0919C
S11300D00201B09103019C01AD0169817A818B8198
S11300E09C81EBD0882309F471C020E030E0A901A1
S11300F069817A818B819C81E0D0882351F481E9E4
S113010090E021E930E0F90120812870FC0120838E
S113011009C081E990E021E930E0F9012081236000
S1130120FC01208328E539E344E75FE369817A81B0
S11301308B819C81C2D0882344F488E990E02FEF1E
S11301403FEFFC013183208330C020E034E244EFF0
S113015056E469817A818B819C81C1D1181634F46B
S113016088E990E0FC01118210821FC008E910E0C8
S113017020E030E040E053E469817A818B819C8106
S1130180B2D1DC01CB019C01AD0160E074E284EFEB
S11301909AE497D0DC01CB01BC01CD01FAD0DC019B
S11301A0CB010197F8019183808384E990E0FC01FD
S11301B01182108289819A81AB81BC818093000174
S11301C090930101A0930201B093030100000F90EA
S11301D00F900F900F90DF91CF911F910F91089581
S11301E0CF93DF93CDB7DEB780E990E020E4FC0144
S11301F0208381E990E02BE0FC01208360E070E043
S1130200CB0155DF0000DF91CF910895CF93DF93A9
S113021000D0CDB7DEB781E290E0FC01108282E22B
S113022090E02FEFFC01208384E290E02FEFFC01AB
S1130230208385E290E0FC0110828AE290E02FEFB7
S1130240FC0120838BE290E0FC0110821A82198267
S1130250C7DF80E290E0FC018081809587708A830B
S11302608A81813041F464EA70ED82E893E41FDF0F
S113027081E089831BC08A81823041F46BE774ED8D
S113028082E993E414DF82E0898310C08A81843098
S113029041F464EA70ED84EA93E409DF83E089833E
S11302A005C060E070E0CB0102DF19828BE290E0D0
S11302B029812370FC012083CCCF9CD008F481E0F9
S11302C008950CD0D2C0CAD040F0C1D030F021F48F
S11302D05F3F19F0B3C05111FCC0B6C0D7D098F33A
S11302E09923C9F35523B1F3951B550BBB27AA27B3
S11302F062177307840738F09F5F5F4F220F331F25
S1130300441FAA1FA9F333D00E2E3AF0E0E830D0F0
S113031091505040E695001CCAF729D0FE2F27D0F3
S1130320660F771F881FBB1F261737074807AB07C1
S1130330B0E809F0BB0B802DBF01FF2793585F4F36
S11303402AF09E3F510568F079C0C3C05F3FECF3CB
S1130350983EDCF3869577956795B795F7959F5FFB
S1130360C9F7880F911D9695879597F90895E1E04F
S1130370660F771F881FBB1F621773078407BA07AE
S113038020F0621B730B840BBA0BEE1F88F7E09509
S1130390089504D06894B1119CC008957FD088F06A
S11303A09F5790F0B92F9927B751A0F0D1F0660F5D
S11303B0771F881F991F1AF0BA95C9F712C0B13078
S11303C081F086D0B1E0089583C0672F782F882705
S11303D0B85F39F0B93FCCF3869577956795B395B7
S11303E0D9F73EF490958095709561957F4F8F4F26
S11303F09F4F0895990F0008550FAA0BE0E8FEEFF0
S113040016161706E807F907C0F012161306E407D4
S1130410F50798F0621B730B840B950B39F40A26CD
S113042061F0232B242B252B21F408950A2609F4AB
S1130430A140A6958FEF811D811D089597F99F67AF
S113044080E870E060E008959FEF80EC0895002458
S11304500A941616170618060906089500240A9425
S113046012161306140605060895092E0394000CAB
S113047011F4882352F0BB0F40F4BF2B11F460FF3A
S113048004C06F5F7F4F8F4F9F4F089557FD905863
S1130490440F551F59F05F3F71F04795880F97FB44
S11304A0991F61F09F3F79F08795089512161306FE
S11304B01406551FF2CF4695F1DF08C0161617062D
S11304C01806991FF1CF8695710561050894089562
S11304D0E894BB2766277727CB0197F908958ADF2D
S11304E008F48FEF08950BD0C0CFB1DF28F0B6DF4A
S11304F018F0952309F0A2CFA7CF1124EACFC6DFC5
S1130500A0F3959FD1F3950F50E0551F629FF00122
S1130510729FBB27F00DB11D639FAA27F00DB11D7B
S1130520AA1F649F6627B00DA11D661F829F222704
S1130530B00DA11D621F739FB00DA11D621F839F8B
S1130540A00D611D221F749F3327A00D611D231F61
S1130550849F600D211D822F762F6A2F11249F57AF
S113056050408AF0E1F088234AF0EE0FFF1FBB1FD2
S1130570661F771F881F91505040A9F79E3F510571
S113058070F05CCFA6CF5F3FECF3983EDCF386952A
S113059077956795B795F795E7959F5FC1F7FE2B1C
S11305A0880F911D9695879597F90895F894FFCF34
S9030000FC
