S01B00006D616E64723032345F6C6162375F70617274322E7372656354
S113000045C0000060C000005EC000005CC000008D
S11300105AC0000058C0000056C0000054C0000080
S113002052C0000050C000004EC000004CC0000090
S11300304AC000006DC0000046C0000044C000007B
S113004042C0000040C000003EC000003CC00000B0
S11300503AC0000038C0000036C0000034C00000C0
S113006032C0000030C000002EC000002CC00000D0
S11300702AC0000028C0000026C0000024C00000E0
S113008022C0000020C000001EC0000011241FBEBA
S1130090CFEFD0E4DEBFCDBF11E0A0E0B1E0E8E1F6
S11300A0F3E000E00BBF02C007900D92A430B1074B
S11300B0D9F721E0A4E0B1E001C01D92A031B2075C
S11300C0E1F708D127C19CCF8BE0809381008DE7B5
S11300D090E0909389008093880082E080936F0081
S11300E0109285001092840080910001909101018A
S11300F0A0910201B0910301809304019093050142
S1130100A0930601B09307018FB780688FBF08954D
S11301101F920F920FB60F9211248F939F93AF9358
S1130120BF938091040190910501A0910601B091C3
S113013007010197A109B109809304019093050176
S1130140A0930601B0930701892B8A2B8B2B99F47A
S113015081E0809308018091000190910101A091B8
S11301600201B09103018093040190930501A093CF
S11301700601B0930701BF91AF919F918F910F90AA
S11301800FBE0F901F9018956093000170930101AA
S1130190809302019093030160930401709305011D
S11301A08093060190930701089580910F01813097
S11301B051F018F08230E9F031C081E080930C01F5
S11301C080930F012EC080910901833048F48091FF
S11301D00C01880F80930C0182E080930F0127C0EB
S11301E081E080930C0182E080930F011092090159
S11301F01EC080910901833048F480910C01880F5E
S113020080930C0181E080930F010BC081E0809307
S11302100C0180930F011092090103C010920F0189
S11302200895809109018F5F809309010895809159
S113023009018F5F80930901089580910E01813037
S113024051F018F0823069F013C010920B0181E074
S113025080930E01089582E080930E0110920B01A9
S1130260089588E080930B0181E080930E01089546
S113027010920E0110920B01089580910D018130AE
S113028051F018F0823099F01DC010920A0181E0FB
S113029080930D011BC090910B0180910C01890F7B
S11302A080930A0192E090930D0185B9089590918D
S11302B00B0180910C01890F80930A0181E08093E6
S11302C00D0104C010920D0115B8089580910A0122
S11302D085B908958FEF84B915B862E370E080E0C2
S11302E090E052DFF1DE10920F0110920E01109295
S11302F00D015BDFC0E002C0A0DFC0E0BEDF809183
S113030008018823E1F310920801CE5C4EDFC63960
S10B0310A8F3F2CFF894FFCF2B
S107031801000000DC
S9030000FC
