S00C0000544553542E73726563D8
S113000045C0000060C000005EC000005CC000008D
S11300105AC0000058C0000056C0000054C0000080
S113002052C0000050C000004EC000004CC0000090
S11300304AC000008BC0000046C0000044C000005D
S113004042C0000040C000003EC000003CC00000B0
S11300503AC0000038C0000036C0000034C00000C0
S113006032C0000030C000002EC000002CC00000D0
S11300702AC0000028C0000026C0000024C00000E0
S113008022C0000020C000001EC0000011241FBEBA
S1130090CFEFD0E4DEBFCDBF11E0A0E0B1E0E4E5F6
S11300A0F3E000E00BBF02C007900D92A430B1074B
S11300B0D9F721E0A4E0B1E001C01D92AB30B20752
S11300C0E1F733D145C19CCFCF93DF93CDB7DEB7F2
S11300D081E890E02BE0FC01208388E890E02DE7A4
S11300E030E0FC01318320838FE690E022E0FC01C4
S11300F0208384E890E0FC01118210828091000149
S113010090910101A0910201B09103018093060135
S113011090930701A0930801B09309018FE590E043
S11301202FE530E0F90120812068FC0120830000E4
S1130130DF91CF910895CF93DF93CDB7DEB781E000
S1130140809305010000DF91CF9108951F920F92D3
S113015000905F000F92112400905B000F922F9388
S11301603F934F935F936F937F938F939F93AF933B
S1130170BF93EF93FF93CF93DF93CDB7DEB7809117
S1130180060190910701A0910801B091090101971E
S1130190A109B1098093060190930701A093080176
S11301A0B09309018091060190910701A091080183
S11301B0B0910901892B8A2B8B2B89F4BCDF8091A8
S11301C0000190910101A0910201B091030180937B
S11301D0060190930701A0930801B0930901000060
S11301E0DF91CF91FF91EF91BF91AF919F918F914B
S11301F07F916F915F914F913F912F910F9000925A
S11302005B000F9000925F000F901F901895CF93A2
S1130210DF9300D000D0CDB7DEB769837A838B83B8
S11302209C8389819A81AB81BC81809300019093E6
S11302300101A0930201B093030180910001909108
S11302400101A0910201B0910301809306019093F2
S11302500701A0930801B093090100000F900F90CB
S11302600F900F90DF91CF910895CF93DF93CDB787
S1130270DEB780910A01882F90E08130910549F022
S113028082309105C9F0892B51F581E080930A01F0
S113029028C080E290E0FC018081813039F480E163
S11302A08093040182E080930A011BC01092040130
S11302B081E080930A0115C080E290E0FC01808116
S11302C0813039F480E18093040182E080930A0153
S11302D008C01092040181E080930A0102C01092C8
S11302E00A0180910A01882F90E08130910559F02C
S11302F08230910579F0892B09F013C085E290E0F2
S1130300FC0110820EC085E290E020910401FC0102
S1130310208307C085E290E020910401FC01208342
S113032000000000DF91CF910895CF93DF93CDB704
S1130330DEB762E070E080E090E069DFC5DE95DF63
S11303400000809105018823E1F310920501F7CFA5
S1070350F894FFCF4B
S107035401000000A0
S9030000FC
