S01B00006D616E64723032345F6C6162335F70617274312E7372656359
S113000045C0000053C0000051C000004FC00000B4
S11300104DC000004BC0000049C0000047C00000B4
S113002045C0000043C0000041C000003FC00000C4
S11300303DC000003BC0000039C0000037C00000D4
S113004035C0000033C0000031C000002FC00000E4
S11300502DC000002BC0000029C0000027C00000F4
S113006025C0000023C0000021C000001FC0000004
S11300701DC000001BC0000019C0000017C0000014
S113008015C0000013C0000011C0000011241FBEE1
S1130090CFEFD0E4DEBFCDBF21E0A0E0B1E001C0EE
S11300A01D92A230B207E1F74BD069C0A9CFCF931C
S11300B0DF93CDB7DEB780910001882F90E08130C7
S11300C0910549F08230910591F0892BE1F481E0AA
S11300D0809300011BC080910101882321F082E0FC
S11300E08093000113C081E0809300010FC08091D0
S11300F00101882321F081E08093000107C082E0A0
S11301008093000103C0109200010000809100015F
S1130110882F90E08130910519F0029739F00CC0D6
S113012085E290E021E0FC01208306C085E290E0B6
S113013022E0FC01208300000000DF91CF910895AC
S1130140CF93DF93CDB7DEB781E290E0FC0110825C
S113015082E290E02FEFFC01208384E290E02FEF15
S1130160FC01208385E290E0FC01108280E290E0B3
S1130170FC01808181708093010199DFF7CFF894AD
S1050180FFCFAB
S9030000FC
