S01B00006D616E64723032345F6C6162325F70617274312E737265635A
S113000045C000004BC0000049C0000047C00000CC
S113001045C0000043C0000041C000003FC00000D4
S11300203DC000003BC0000039C0000037C00000E4
S113003035C0000033C0000031C000002FC00000F4
S11300402DC000002BC0000029C0000027C0000004
S113005025C0000023C0000021C000001FC0000014
S11300601DC000001BC0000019C0000017C0000024
S113007015C0000013C0000011C000000FC0000034
S11300800DC000000BC0000009C0000011241FBEF9
S1130090CFEFD0E4DEBFCDBF29D094C0B1CF2F9233
S11300A03F92CF93DF9300D000D0CDB7DEB78983E2
S11300B06A833C822B828981882F90E02A81222FB7
S11300C030E002C0959587952A95E2F781709927CB
S11300D021E0892B09F420E0822F0F900F900F90DC
S11300E00F90DF91CF913F902F9008952F923F92E0
S11300F0CF93DF9300D000D01F92CDB7DEB781E25B
S113010090E0FC01108282E290E02FEFFC0120835A
S113011084E290E0FC01108285E290E02FEFFC0184
S1130120208387E290E02FEFFC01208388E290E0B7
S1130130FC01108219821A821B82198280E290E0EB
S1130140FC0180818A8383E290E0FC0180818B83BF
S11301501C8215C0CE0106961C0160E08A819FDFD7
S1130160813039F489818F5F89838A8186958A8376
S113017003C08A8186958A838C818F5F8C838C816E
S1130180893040F31D8215C0CE0106961C0160E043
S11301908B8185DF813039F489818F5F89838B81FD
S11301A086958B8303C08B8186958B838D818F5F2E
S11301B08D838D81893040F388E290E02981FC01B0
S10B01C02083BBCFF894FFCFAC
S9030000FC
