S01B00006D616E64723032345F6C6162325F70617274332E7372656358
S113000045C000004BC0000049C0000047C00000CC
S113001045C0000043C0000041C000003FC00000D4
S11300203DC000003BC0000039C0000037C00000E4
S113003035C0000033C0000031C000002FC00000F4
S11300402DC000002BC0000029C0000027C0000004
S113005025C0000023C0000021C000001FC0000014
S11300601DC000001BC0000019C0000017C0000024
S113007015C0000013C0000011C000000FC0000034
S11300800DC000000BC0000009C0000011241FBEF9
S1130090CFEFD0E4DEBFCDBF4ED0C5C0B1CFCF933C
S11300A0DF9300D01F92CDB7DEB789836A834B8379
S11300B08B81882371F08A81282F30E081E090E0E1
S11300C002C0880F991F2A95E2F7982F8981892BFE
S11300D00EC08A81282F30E081E090E002C0880FB2
S11300E0991F2A95E2F7982F9095898189230F907B
S11300F00F900F90DF91CF910895CF93DF9300D0AD
S1130100CDB7DEB789836A838981882F90E02A81FD
S1130110222F30E002C0959587952A95E2F78170E9
S1130120992721E0892B09F420E0822F0F900F906A
S1130130DF91CF910895CF93DF9300D000D000D00A
S1130140CDB7DEB781E290E0FC01108282E290E05C
S11301502FEFFC01208384E290E02FEFFC01208349
S113016085E290E0FC0110821C8219821A8281E0EF
S11301708D831B8285E290E0FC01108280E290E096
S1130180FC0180818C838C8164E0B7DF882379F063
S11301908C8166E0B2DF882351F48C8165E0ADDFA9
S11301A0882329F041E067E08B8179DF8B8380E24B
S11301B090E0FC0180818F70898380E290E0FC01F3
S11301C080818F708D838D81853028F441E066E0D5
S11301D08B8165DF8B8385E08A831CC08981181637
S11301E0B4F48A818E8341E06E818B8158DF8B83E6
S11301F08981825089838D81893049F48A81813053
S113020031F440E061E08B814ADF8B8306C08A8150
S113021081508A838A8188230CF785E290E02B81C0
S10D0220FC012083A1CFF894FFCF66
S9030000FC
