:1000000045C0000060C000005EC000005CC0000091
:100010005AC0000058C0000056C0000054C0000084
:1000200052C0000050C000004EC000004CC0000094
:100030004AC0000065C0000046C0000044C0000087
:1000400042C0000040C000003EC000003CC00000B4
:100050003AC0000038C0000036C0000034C00000C4
:1000600032C0000030C000002EC000002CC00000D4
:100070002AC0000028C0000026C0000024C00000E4
:1000800022C0000020C000001EC0000011241FBEBE
:10009000CFEFD0E4DEBFCDBF11E0A0E0B1E0ECE4F3
:1000A000F2E000E00BBF02C007900D92A430B10750
:1000B000D9F721E0A4E0B1E001C01D92A930B20758
:1000C000E1F77FD0C1C09CCFCF93DF93CDB7DEB730
:1000D0008AE790E02AE730E0F9012081206EFC01F8
:1000E00020830000DF91CF910895CF93DF93CDB7A8
:1000F000DEB781E0809304010000DF91CF91089585
:100100001F920F9200905F000F92112400905B00ED
:100110000F922F933F934F935F936F937F938F93A0
:100120009F93AF93BF93EF93FF93CF93DF93CDB79D
:10013000DEB78091050190910601A0910701B09171
:1001400008010197A109B109809305019093060167
:10015000A0930701B09308018091050190910601D9
:10016000A0910701B0910801892B8A2B8B2B89F470
:10017000BCDF8091000190910101A0910201B0913A
:1001800003018093050190930601A0930701B093AA
:1001900008010000DF91CF91FF91EF91BF91AF91E6
:1001A0009F918F917F916F915F914F913F912F918F
:1001B0000F9000925B000F9000925F000F901F90D5
:1001C0001895CF93DF9300D000D0CDB7DEB78DEC7C
:1001D0009BEA9A83898389818B831C8281E290E0E8
:1001E000FC01108282E290E02FEFFC01208384E288
:1001F00090E02FEFFC01208385E290E0FC0110826B
:100200008AE290E02FEFFC0120838BE290E0FC017A
:1002100010825ADF88E790E0FC01808191819A8307
:10022000898389818B8389819A81892F99278C83FE
:1002300085E290E02B81FC0120838BE290E02C8111
:0C0240002370FC012083E6CFF894FFCF70
:04024C0001000000AD
:00000001FF
