S01C00006D616E64723032345F6C6162365F7061727420312E7372656335
S113000045C0000060C000005EC000005CC000008D
S11300105AC0000058C0000056C0000054C0000080
S113002052C0000050C000004EC000004CC0000090
S11300304AC000004EC1000046C0000044C0000099
S113004042C0000040C000003EC000003CC00000B0
S11300503AC0000038C0000036C0000034C00000C0
S113006032C0000030C000002EC000002CC00000D0
S11300702AC0000028C0000026C0000024C00000E0
S113008022C0000020C000001EC0000011241FBEBA
S1130090CFEFD0E4DEBFCDBF11E0A0E0B1E0E6E9F0
S11300A0F6E000E00BBF02C007900D92A430B10748
S11300B0D9F721E0A4E0B1E001C01D92AD30B20750
S11300C0E1F7ABD2E6C29CCFCF93DF93CDB7DEB7D7
S11300D081E01AD00000DF91CF910895CF93DF9390
S11300E0CDB7DEB784E690E082D088E30DD086E019
S11300F00BD08FE009D081E007D08AE090E077D080
S11301000000DF91CF910895CF93DF931F92CDB775
S1130110DEB789838BE290E02BE230E0F9012081A5
S11301202F7BFC01208388E290E02981FC0120835D
S11301308BE290E02BE230E0F90120812068FC01A1
S1130140208300008BE290E02BE230E0F901208173
S11301502F77FC01208382E090E049D000000F90CB
S1130160DF91CF910895CF93DF931F92CDB7DEB780
S113017089838BE290E02BE230E0F9012081206456
S1130180FC01208388E290E02981FC0120838BE23A
S113019090E02BE230E0F90120812068FC0120830B
S11301A000008BE290E02BE230E0F90120812F7710
S11301B0FC01208381E090E01AD000000F90DF91D1
S11301C0CF910895CF93DF931F92CDB7DEB7898384
S11301D08981813120F48981815896DF03C0898126
S11301E0815592DF00000F90DF91CF910895CF9356
S11301F0DF9300D000D000D0CDB7DEB79E838D83CF
S11302001A82198213C01C821B8206C000008B81D3
S11302109C8101969C838B838B819C818730934046
S1130220ACF389819A8101969A83898329813A81E1
S11302308D819E812817390734F3000026960FB666
S1130240F894DEBF0FBECDBFDF91CF910895CF9359
S1130250DF93CDB7DEB781E890E02BE0FC0120838B
S113026088E890E02DE730E0FC01318320838FE6BD
S113027090E022E0FC01208384E890E0FC011182FC
S113028010828091000190910101A0910201B0912E
S113029003018093080190930901A0930A01B0938C
S11302A00B018FE590E02FE530E0F9012081206813
S11302B0FC0120830000DF91CF910895CF93DF9359
S11302C0CDB7DEB781E0809307010000DF91CF91C5
S11302D008951F920F9200905F000F9211240090D6
S11302E05B000F922F933F934F935F936F937F9392
S11302F08F939F93AF93BF93EF93FF93CF93DF932A
S1130300CDB7DEB78091080190910901A0910A014F
S1130310B0910B010197A109B10980930801909351
S11303200901A0930A01B0930B01809108019091F7
S11303300901A0910A01B0910B01892B8A2B8B2B07
S113034089F4BCDF8091000190910101A091020128
S1130350B09103018093080190930901A0930A01CD
S1130360B0930B010000DF91CF91FF91EF91BF910A
S1130370AF919F918F917F916F915F914F913F9139
S11303802F910F9000925B000F9000925F000F90EE
S11303901F901895CF93DF9300D000D0CDB7DEB770
S11303A069837A838B839C8389819A81AB81BC81A5
S11303B08093000190930101A0930201B093030183
S11303C08091000190910101A0910201B09103017B
S11303D08093080190930901A0930A01B0930B0143
S11303E000000F900F900F900F90DF91CF91089520
S11303F0CF93DF93CDB7DEB780910C01882F90E0C7
S11304008230910509F44BC0833091052CF4009798
S113041059F0019769F0B6C08330910509F473C0AF
S1130420049709F4A9C0AEC081E080930C01ACC06C
S113043080910401813079F480910501893028F498
S1130440809105018F5F809305011092060182E07F
S113045080930C0199C080910401882321F481E0E8
S113046080930C0191C080910401823091F48091B9
S11304700501882331F080910501815080930501A5
S113048002C0109205011092060183E080930C01D2
S11304907BC01092050184E080930C0175C08091AB
S11304A00401813041F480910601882321F482E023
S11304B080930C0116C080910401813091F48091E5
S11304C00601813071F480910501893028F480910E
S11304D005018F5F809305011092060182E08093ED
S11304E00C0180910401833041F4109206011092B2
S11304F0050184E080930C0147C01092060181E05D
S113050080930C0141C080910401823041F48091B8
S11305100601882321F483E080930C012CC0809190
S113052004018230B1F480910601813091F480910C
S11305300501882331F080910501815080930501E4
S113054002C0109205011092060183E080930C0111
S113055012C080910401833041F41092060110927C
S1130560050184E080930C010FC01092060181E024
S113057080930C0109C008C01092060181E08093A9
S11305800C0102C010920C0180910C01882F90E0A4
S113059082309105E1F0833091052CF4009749F005
S11305A0019771F036C083309105E9F0049739F171
S11305B030C081E007DE80910501805DD4DD29C073
S11305C081E000DE80910501805DCDDD22C0809157
S11305D006018F5F8093060181E0F4DD80910501BF
S11305E0805DC1DD16C0809106018F5F8093060196
S11305F081E0E8DD80910501805DB5DD0AC01092DF
S1130600050162DD81E0DEDD80910501805DABDD09
S113061000000000DF91CF910895CF93DF93CDB711
S1130620DEB781E290E0FC01108282E290E02FEFDD
S1130630FC01208387E290E02FEFFC01208388E215
S113064090E0FC0110828AE290E02FEFFC0120830D
S11306508BE290E0FC011082109205016DE770E0DE
S113066080E090E097DEF3DD39DD2EDD10920C01A1
S113067080E290E0FC018081809583708093040186
S1130680B7DE0000809107018823E1F3109207018F
S1090690EFCFF894FFCF48
S1070696010000005B
S9030000FC
