:1000000045C0000060C000005EC000005CC0000091
:100010005AC0000058C0000056C0000054C0000084
:1000200052C0000050C000004EC000004CC0000094
:100030004AC0000067C1000046C0000044C0000084
:1000400042C0000040C000003EC000003CC00000B4
:100050003AC0000038C0000036C0000034C00000C4
:1000600032C0000030C000002EC000002CC00000D4
:100070002AC0000028C0000026C0000024C00000E4
:1000800022C0000020C000001EC0000011241FBEBE
:10009000CFEFD0E4DEBFCDBF11E0A0E0B1E0ECE0F7
:1000A000F7E000E00BBF02C007900D92A430B1074B
:1000B000D9F721E0A4E0B1E001C01D92A032B2075F
:1000C000E1F791D221C39CCFCF93DF9300D0CDB77E
:1000D000DEB789836A838A81282F30E081E090E04F
:1000E00002C0880F991F2A95E2F7982F89818923EA
:1000F0000F900F90DF91CF910895CF93DF93CDB7FD
:10010000DEB781E01AD00000DF91CF910895CF9340
:10011000DF93CDB7DEB784E690E082D088E30DD0E0
:1001200086E00BD08FE009D081E007D08AE090E034
:1001300077D00000DF91CF910895CF93DF931F9286
:10014000CDB7DEB7898382E290E022E230E0F901A8
:1001500020812E7FFC0120838BE290E02981FC012D
:10016000208382E290E022E230E0F90120812260E7
:10017000FC012083000082E290E022E230E0F901FD
:1001800020812D7FFC01208382E090E049D0000097
:100190000F90DF91CF910895CF93DF931F92CDB74A
:1001A000DEB7898382E290E022E230E0F90120812B
:1001B0002160FC0120838BE290E02981FC012083F7
:1001C00082E290E022E230E0F90120812260FC012D
:1001D0002083000082E290E022E230E0F9012081F9
:1001E0002D7FFC01208381E090E01AD000000F9069
:1001F000DF91CF910895CF93DF931F92CDB7DEB7F4
:1002000089838981813120F48981815896DF03C0F7
:100210008981815592DF00000F90DF91CF91089581
:10022000CF93DF9300D000D000D0CDB7DEB79E8350
:100230008D831A82198213C01C821B8206C00000A3
:100240008B819C8101969C838B838B819C818730E1
:100250009340ACF389819A8101969A83898329819D
:100260003A818D819E812817390734F30000269644
:100270000FB6F894DEBF0FBECDBFDF91CF910895CA
:10028000CF93DF93CDB7DEB781E890E02BE0FC01A0
:10029000208388E890E02DE730E0FC013183208363
:1002A0008FE690E022E0FC01208384E890E0FC01EE
:1002B000118210828091000190910101A0910201B0
:1002C000B09103018093060190930701A093080168
:1002D000B09309018FE590E02FE530E0F90120812E
:1002E0002068FC0120830000DF91CF910895CF9317
:1002F000DF93CDB7DEB781E0809305010000DF9189
:10030000CF9108951F920F9200905F000F921124D9
:1003100000905B000F922F933F934F935F936F93E7
:100320007F938F939F93AF93BF93EF93FF93CF935D
:10033000DF93CDB7DEB78091060190910701A091C0
:100340000801B09109010197A109B1098093060143
:1003500090930701A0930801B093090180910601D1
:1003600090910701A0910801B0910901892B8A2B76
:100370008B2B89F4BCDF8091000190910101A09149
:100380000201B09103018093060190930701A093AD
:100390000801B09309010000DF91CF91FF91EF9127
:1003A000BF91AF919F918F917F916F915F914F918D
:1003B0003F912F910F9000925B000F9000925F0091
:1003C0000F901F901895CF93DF9300D000D0CDB73A
:1003D000DEB769837A838B839C8389819A81AB8121
:1003E000BC818093000190930101A0930201B0931E
:1003F00003018091000190910101A0910201B0914F
:1004000003018093060190930701A0930801B09324
:10041000090100000F900F900F900F90DF91CF9186
:100420000895CF93DF93CDB7DEB788E290E02FEE4B
:10043000FC012083000086E290E0FC01808160E006
:1004400043DE882321F481E380930401C8C086E25F
:1004500090E0FC01808161E037DE882321F484E3B1
:1004600080930401BCC086E290E0FC01808162E0E0
:100470002BDE882321F487E380930401B0C086E259
:1004800090E0FC01808163E01FDE882321F48AE292
:1004900080930401A4C088E290E02FEDFC0120834A
:1004A000000086E290E0FC01808160E00DDE8823A0
:1004B00021F482E38093040192C086E290E0FC0183
:1004C000808161E001DE882321F485E380930401CB
:1004D00086C086E290E0FC01808162E0F5DD882341
:1004E00021F488E3809304017AC086E290E0FC0165
:1004F000808163E0E9DD882321F480E380930401B7
:100500006EC088E290E02FEBFC012083000086E2C1
:1005100090E0FC01808160E0D7DD882321F483E353
:10052000809304015CC086E290E0FC01808161E080
:10053000CBDD882321F486E38093040150C086E25A
:1005400090E0FC01808162E0BFDD882321F489E333
:100550008093040144C086E290E0FC01808163E066
:10056000B3DD882321F483E28093040138C088E25C
:1005700090E02FE7FC012083000086E290E0FC0180
:10058000808160E0A1DD882321F481E4809304016F
:1005900026C086E290E0FC01808161E095DD882341
:1005A00021F482E4809304011AC086E290E0FC0109
:1005B000808162E089DD882321F483E48093040153
:1005C0000EC086E290E0FC01808163E07DDD88233F
:1005D00021F484E48093040102C01092040100001D
:1005E000DF91CF910895CF93DF93CDB7DEB76097BA
:1005F0000FB6F894DEBF0FBECDBF81E290E02FEFC3
:10060000FC01208382E290E0FC01108284E290E011
:100610002FEFFC01208385E290E0FC01108287E24D
:1006200090E020EFFC01208388E290E02FE0FC01C5
:1006300020838AE290E02FEFFC0120838BE290E0A0
:10064000FC01108288EE93E0A0E0B0E08A839B83F7
:10065000AC83BD831E8280E389838A819B81AC81C8
:10066000BD818F839887A987BA878AE091E09E87AA
:100670008D8785E191E0988B8F8782E090E09C8761
:100680008B878FEF80930A018F819885A985BA8522
:1006900080930B0190930C01A0930D01B0930E0178
:1006A0008F819885A985BA8580930F019093100159
:1006B000A0931101B093120181E192E09093140193
:1006C00080931301DDDD64E670E080E090E07BDE86
:1006D0001EDD13DDA6DE809104018E838E818823CA
:1006E00059F09E818981981739F08E81898305DDC3
:1006F00081E081DD8E8150DD00008091050188233D
:0C070000E1F310920501E6CFF894FFCF62
:04070C0001000000E8
:00000001FF
